:100000000C942A000C9447000C9447000C94470071
:100010000C9447000C9447000C9447000C94470044
:100020000C9447000C9447000C9447000C94470034
:100030000C9447000C9447000C9447000C94470024
:100040000C9447000C9447000C9447000C94470014
:100050000C94470011241FBECFE5D8E0DEBFCDBF12
:0C0060000E9436000C943400F894FFCF8E
:10006C008FEF8ABB8AEA8BBB2FEF84E39CE0215095
:10007C0080409040E1F700C000008BB380958BBBB3
:02008C00F3CFB0
:04008E000C940000CE
:00000001FF
